:100000000C9442000C946A000C946A000C946A00F0
:100010000C946A000C946A000C946A000C946A00B8
:100020000C946A000C9403080C942C080C9455084A
:100030000C94F9080C947E080C94A7080C94D00832
:100040000C9488070C94B1070C94DA070C946A009E
:100050000C94C0050C9473030C946A000C946A0011
:100060000C946A000C946A000C946A000C946A0068
:100070000C9495050C94C1030C946A00E201EB0505
:10008000350A180211241FBECFEFD0E1DEBFCDBF6D
:1000900011E0A0E0B1E0E8E9FCE102C005900D92BA
:1000A000A635B107D9F712E0A6E5B1E001C01D926F
:1000B000A83CB107E1F710E0C2E8D0E004C0229705
:1000C000FE010E94AB0BCC37D107C9F70E94BA02E0
:1000D0000C943F0E0C9400008FE591E00E94740692
:1000E00088E591E00E9474068DE691E00E94740616
:1000F00086E691E00E9474068BE791E00E94740608
:1001000084E791E00E94740682E891E00E94740600
:1001100089E891E00E94740680E991E00C947406ED
:10012000EF920F93E12C01E028E040E855E260E017
:1001300070E082E092E00E94930460E971E08BE756
:1001400091E00E94020769E871E08DE691E00E946B
:10015000020762E871E08FE591E00F91EF900C9457
:1001600002071F93CF93DF93CDB7DEB727970FB664
:10017000F894DEBF0FBECDBF80910A010E9421021C
:100180009C0197FF02C02D5F3F4F35952795359510
:1001900027952852310930939C0120939B0180912F
:1001A00008010E9421029C0197FF02C02D5F3F4F72
:1001B000359527953595279530939A012093990188
:1001C000809106010E9421026091990170919A012B
:1001D000882777FD8095982F0E94DF0A2AE939E960
:1001E00049E55FE30E94440A0E94AC0A70939801BB
:1001F0006093970160919B0170919C014AE0CE0150
:1002000001960E943307BE016F5F7F4F84E791E044
:100210000E940207CE0101960E9474066091990126
:1002200070919A014AE0CE0101960E943307BE0107
:100230006F5F7F4F86E691E00E940207CE01019634
:100240000E94740660919701709198014AE0CE0176
:1002500001960E943307BE016F5F7F4F88E591E0F2
:100260000E940207CE0101960E9474061092570167
:100270001092560117E021C0189FB001199F700D10
:1002800011246C587E4F82E092E00E943C068091DF
:100290005601909157011816190634F06EE071E07E
:1002A00082E092E00E943A068091560190915701B7
:1002B0000196909357018093560180915601909139
:1002C000570182309105C4F26FE071E082E092E064
:1002D0000E946006109257011092560117E021C04B
:1002E000189FB001199F700D11246A597E4F82E04A
:1002F00092E00E943C068091560190915701181699
:10030000190634F06EE071E082E092E00E943A0655
:1003100080915601909157010196909357018093D7
:100320005601809156019091570182309105C4F297
:100330006FE071E082E092E00E9460061092570147
:100340001092560117E021C0189FB001199F700D3F
:100350001124685A7E4F82E092E00E943C06809110
:100360005601909157011816190634F06EE071E0AD
:1003700082E092E00E943A068091560190915701E6
:100380000196909357018093560180915601909168
:10039000570182309105C4F26FE071E082E092E093
:1003A0000E94600668EE73E080E090E00E94980290
:1003B00027960FB6F894DEBF0FBECDBFDF91CF9169
:1003C0001F91089560E171E080E991E00E94E506E7
:1003D00064E171E089E891E00E94E50667E171E07F
:1003E00082E891E00E94E5066FE071E084E791E029
:1003F0000E94E5066FE071E08BE791E00E94E50660
:100400006FE071E086E691E00E94E5066FE071E042
:100410008DE691E00E94E5066FE071E088E591E0ED
:100420000E94E5066FE071E08FE591E00C94E5062F
:100430000C946C0080E480937C0087E880937A00C1
:100440000895CF93DF931F92CDB7DEB790910C0143
:10045000913031F489830E941A0210920C01898133
:10046000877020910D0140E4249F90011124822B7C
:1004700080937C0080917A00806480937A008091E0
:100480007A0086FDFCCF2091780030917900932F7F
:1004900080E0FC01E22B9F01C9010F90DF91CF9119
:1004A000089580919E0190919F01A091A001B0912B
:1004B000A10130919D01232F2D5F2D3720F401964E
:1004C000A11DB11D05C0232F2A570296A11DB11DE4
:1004D00020939D0180939E0190939F01A093A00182
:1004E000B093A1018091A2019091A301A091A401D8
:1004F000B091A5010196A11DB11D8093A201909319
:10050000A301A093A401B093A50108950F931F9395
:100510008FB7F89400919E0110919F012091A00146
:100520003091A1018FBFB801C9011F910F910895AA
:100530008F929F92AF92BF92CF92DF92EF92FF92F3
:100540006B017C010E9486024B015C010E948602C5
:10055000681979098A099B096C157D058E059F0527
:10056000A8F3FF90EF90DF90CF90BF90AF909F9057
:100570008F9008950E9460070E9490000E94B10031
:10058000FDCFFC0120893189C9010895DC01509615
:100590002D913C915197232B49F05496ED91FC916C
:1005A0005597E80FF91F268930E002C02FEF3FEF83
:1005B000C9010895FC01118A108A158A148A138AC8
:1005C000128A0895FC0124813581C9010895FC0136
:1005D00024813581C9010895FC0180899189892B85
:1005E000D1F03FB7F894808991890197918B808BE6
:1005F00084899589DF01A80FB91F56962C91019621
:10060000803291051CF4958B848B02C0158A148A64
:100610003FBF30E002C02FEF3FEFC9010895EF92D6
:10062000FF921F93CF93DF931F92CDB7DEB77C016C
:10063000D701DA968D919C91DB974097C8F71FB749
:10064000F894D696ED91FC91D7970190F081E02D2A
:10065000C701C6966983099569814097C8F4F70177
:1006600082AD93AD019693AF82AF84AD95ADE80FA7
:10067000F91FE05CFF4F60830196D701DD969C93E4
:100680008E93DC97409724F0DD961C921E92DC97A7
:10069000F701EA5AFF4F0190F081E02D80818062DE
:1006A00080831FBF81E090E00F90DF91CF911F9179
:1006B000FF90EF900895665F7F4F680F791FCB0121
:1006C0000895665F7F4F680F791FCB010895665FBD
:1006D0007F4F680F791FCB010895665F7F4F680FCA
:1006E000791FCB0108951F920F920FB60F9211241C
:1006F0002F938F939F93AF93BF93EF93FF9380912B
:100700003C0290913D02892B21F1E0915C02F09135
:100710005D0280913C0290913D02019790933D02D1
:1007200080933C028091400290914102DC01A85CE0
:10073000BD4F1A962C910196803191052CF490931F
:1007400041028093400204C0109241021092400284
:10075000208380913C0290913D02892B31F4E091FD
:100760005802F091590288E98083FF91EF91BF917F
:10077000AF919F918F912F910F900FBE0F901F906F
:1007800018951F920F920FB60F9211242F938F93EB
:100790009F93AF93BF93EF93FF938091E00190916C
:1007A000E101892B21F1E0910002F0910102809199
:1007B000E0019091E10101979093E1018093E001C4
:1007C0008091E4019091E501DC01A452BE4F1A969C
:1007D0002C910196803191052CF49093E501809342
:1007E000E40104C01092E5011092E401208380919D
:1007F000E0019091E101892B31F4E091FC01F0914D
:10080000FD0188E98083FF91EF91BF91AF919F91A6
:100810008F912F910F900FBE0F901F901895FC0194
:10082000262F1382128248EE53E060E070E044838A
:1008300055836683778380E291E09183808380E3B0
:1008400091E09587848780E290E097878687118A78
:10085000108A158A148A138A128A8AE391E097AB68
:1008600086AB80E190E091AF80AF13AE12AE17AED1
:1008700016AE15AE14AE222321F0213009F052C07D
:1008800028C0DF01A05BBF4F85EC90E08D939C9367
:10089000DF01AE5ABF4F84EC90E08D939C93DF0153
:1008A000AC5ABF4F80EC90E08D939C93DF01AA5A25
:1008B000BF4F81EC90E08D939C93DF01A85ABF4F0E
:1008C00082EC90E08D939C93E65AFF4F86EC90E08B
:1008D00027C0DF01A05BBF4F8DEC90E08D939C9310
:1008E000DF01AE5ABF4F8CEC90E08D939C93DF01FB
:1008F000AC5ABF4F88EC90E08D939C93DF01AA5ACD
:10090000BF4F89EC90E08D939C93DF01A85ABF4FB5
:100910008AEC90E08D939C93E65AFF4F8EEC90E02A
:100920009183808308953F924F925F926F927F925E
:100930008F929F92AF92BF92CF92DF92EF92FF92EF
:100940000F931F93CF93DF93EC014A015B01122FAA
:100950003E2C60E072E18AE790E0A50194010E94DC
:100960006B0B69017A0184E0C80ED11CE11CF11CFB
:1009700083E0F694E794D794C7948A95D1F760E022
:1009800074E284EF90E0A50194010E946B0B2901B1
:100990003A0194E0490E511C611C711C93E076945D
:1009A0006794579447949A95D1F7A30192014427ED
:1009B000552760E874E88EE190E00E948D0B5901A4
:1009C000A818B908B7FE03C0B194A194B108A70153
:1009D00096014427552760E472E48FE090E00E947E
:1009E0008D0B2819390937FF03C03195219531093D
:1009F000FE01EC5AFF4F0190F081E02DA216B306E4
:100A00003CF482E08083620181E0C81AD10804C00E
:100A1000108291E0C91AD1081630C1F018F41530CF
:100A200099F405C0173029F0193071F404C080E042
:100A30000EC084E00CC0FE01EA5AFF4F0190F08125
:100A4000E02D80818460808386E001C082E00230F6
:100A500009F4886091E0391621F092E0391204C05F
:100A600002C0806301C08062FE01E85AFF4F01901E
:100A7000F081E02D8083FE01E05BFF4F0190F0816B
:100A8000E02DD082FE01EE5AFF4F0190F081E02D63
:100A9000C082CA5ADF4FE881F98188E98083DF91FB
:100AA000CF911F910F91FF90EF90DF90CF90BF906B
:100AB000AF909F908F907F906F905F904F903F90FE
:100AC00008950F931F93CF93DF931F92CDB7DEB797
:100AD0008C01DC01ED91FC910190F081E02D6983A6
:100AE000099569818097D0F4F801848195810196F8
:100AF0009583848386819781E80FF91F6287019629
:100B00008032910534F4D80117969C938E931697F2
:100B100003C0F8011782168281E001C080E00F90C7
:100B2000DF91CF911F910F9108951F920F920FB6F1
:100B30000F9211242F933F934F935F936F937F9363
:100B40008F939F93AF93BF93EF93FF93E091000236
:100B5000F0910102608182EB91E00E946105FF91BA
:100B6000EF91BF91AF919F918F917F916F915F9125
:100B70004F913F912F910F900FBE0F901F9018959E
:100B80001F920F920FB60F9211242F933F934F9302
:100B90005F936F937F938F939F93AF93BF93EF93E5
:100BA000FF93E0915C02F0915D0260818EE092E043
:100BB0000E946105FF91EF91BF91AF919F918F913D
:100BC0007F916F915F914F913F912F910F900FBE49
:100BD0000F901F90189560E082E092E00E940F0451
:100BE00061E086EA91E00C940F04CF92DF92EF92DD
:100BF000FF920F931F93CF93DF936C01EB017A0168
:100C0000E60EF71E00E010E00BC06991D601ED91F1
:100C1000FC910190F081E02DC6010995080F191F84
:100C2000CE15DF0591F7C801DF91CF911F910F918C
:100C3000FF90EF90DF90CF9008956115710581F0DE
:100C4000DB010D900020E9F7AD0141505109461B31
:100C5000570BDC01ED91FC910280F381E02D0994AA
:100C600080E090E00895DC01ED91FC910190F0812D
:100C7000E02D09940C941D06DC01ED91FC91DB0143
:100C800014964D915C9115976D917C910280F38142
:100C9000E02D09940F931F93CF93DF93EC016DE048
:100CA0000E9433068C016AE0CE010E9433069C014B
:100CB000200F311FC901DF91CF911F910F9108952E
:100CC0000F931F93CF93DF93EC010E941D068C01BD
:100CD000CE010E944A069801280F391FC901DF91F1
:100CE000CF911F910F910895FC01808191810C9407
:100CF0004A0CCF93DF93EC0188819981009711F022
:100D00000E944A0C198218821D821C821B821A8240
:100D1000DF91CF9108950F931F93CF93DF93EC0151
:100D20008B016F5F7F4F888199810E94E70C00974C
:100D300031F0998388831B830A8381E001C080E0BE
:100D4000DF91CF911F910F910895CF93DF93EC0125
:100D500088819981892B31F08A819B818617970739
:100D600008F00CC0CE010E948B06882349F08C81CC
:100D70009D81892B19F4E881F981108281E001C0FD
:100D800080E0DF91CF910895EF92FF920F931F9330
:100D9000CF93DF93EC017B018A01BA010E94A50683
:100DA000811104C0CE010E94790607C01D830C8307
:100DB000B701888199810E94BC0DCE01DF91CF914E
:100DC0001F910F91FF90EF900895DC0111961C92F6
:100DD0001E9213961C921E92129715961C921E92AA
:100DE000149716961C926115710559F0DB010D9050
:100DF0000020E9F7AD0141505109461B570B0C94F7
:100E0000C4060895CF93DF93EC01FB018617970783
:100E100061F0608171816115710529F0448155810E
:100E20000E94C40602C00E947906CE01DF91CF91D4
:100E30000895CF93DF93D82FC92F6115710561F005
:100E4000DB010D900020E9F7AD0141505109461B2F
:100E5000570B0E94C40602C00E9479068D2F9C2F5A
:100E6000DF91CF9108950F931F93CF93DF93CDB769
:100E7000DEB762970FB6F894DEBF0FBECDBF8C0110
:100E8000CB01F80111821082138212821582148222
:100E9000168250E0BE016F5F7F4F0E94C30DBE01FE
:100EA0006F5F7F4FC8010E94190762960FB6F894D2
:100EB000DEBF0FBECDBFDF91CF911F910F9108957F
:100EC00063E082EA92E00E941F0A21E041E552E0DD
:100ED00060E082EA92E00E94F50964E082EA92E032
:100EE0000E94220961E080E892E00E941F0A64E00B
:100EF00080E892E00E94220961E08EE592E00E9483
:100F00001F0A64E08EE592E00E9422097894089519
:100F10001F920F920FB60F9211242F933F934F936E
:100F20005F936F937F938F939F93AF93BF93EF9351
:100F3000FF93E091BC02F091BD02309709F0099552
:100F4000FF91EF91BF91AF919F918F917F916F91A1
:100F50005F914F913F912F910F900FBE0F901F9077
:100F600018951F920F920FB60F9211242F933F9353
:100F70004F935F936F937F938F939F93AF93BF93A1
:100F8000EF93FF93E091BE02F091BF02309709F01A
:100F90000995FF91EF91BF91AF919F918F917F91B3
:100FA0006F915F914F913F912F910F900FBE0F90D6
:100FB0001F9018951F920F920FB60F9211242F9326
:100FC0003F934F935F936F937F938F939F93AF93D1
:100FD000BF93EF93FF93E091BA02F091BB02309779
:100FE00009F00995FF91EF91BF91AF919F918F917A
:100FF0007F916F915F914F913F912F910F900FBE15
:101000000F901F9018951F920F920FB60F921124F8
:101010002F933F934F935F936F937F938F939F9300
:10102000AF93BF93EF93FF93E0917802F091790231
:10103000309709F00995FF91EF91BF91AF919F9182
:101040008F917F916F915F914F913F912F910F9071
:101050000FBE0F901F9018951F920F920FB60F9210
:1010600011242F933F934F935F936F937F938F93AD
:101070009F93AF93BF93EF93FF93E0917A02F09128
:101080007B02309709F00995FF91EF91BF91AF91E5
:101090009F918F917F916F915F914F913F912F9190
:1010A0000F900FBE0F901F9018951F920F920FB6C2
:1010B0000F9211242F933F934F935F936F937F93DE
:1010C0008F939F93AF93BF93EF93FF93E09176023B
:1010D000F0917702309709F00995FF91EF91BF9158
:1010E000AF919F918F917F916F915F914F913F91C0
:1010F0002F910F900FBE0F901F9018951F920F9277
:101100000FB60F9211242F933F934F935F936F93DA
:101110007F938F939F93AF93BF93EF93FF93E09150
:101120009A02F0919B02309709F00995FF91EF9197
:10113000BF91AF919F918F917F916F915F914F91EF
:101140003F912F910F900FBE0F901F9018951F92F7
:101150000F920FB60F9211242F933F934F935F93EB
:101160006F937F938F939F93AF93BF93EF93FF936F
:10117000E0919C02F0919D02309709F00995FF9152
:10118000EF91BF91AF919F918F917F916F915F91FF
:101190004F913F912F910F900FBE0F901F90189578
:1011A0001F920F920FB60F9211242F933F934F93DC
:1011B0005F936F937F938F939F93AF93BF93EF93BF
:1011C000FF93E0919802F0919902309709F0099508
:1011D000FF91EF91BF91AF919F918F917F916F910F
:1011E0005F914F913F912F910F900FBE0F901F90E5
:1011F00018951F920F920FB60F9211242F933F93C1
:101200004F935F936F937F938F939F93AF93BF930E
:10121000EF93FF93E091A002F091A102309709F0C3
:101220000995FF91EF91BF91AF919F918F917F9120
:101230006F915F914F913F912F910F900FBE0F9043
:101240001F901895DC012C916150223039F46730E1
:1012500068F4E62FF0E0E05CFE4F06C0693030F441
:10126000E62FF0E0E95BFE4F208101C020E0DC01C9
:101270001A96ED91FC911B978081887F822B808349
:101280000895CF93DF93EC016883613011F120F072
:10129000623009F06CC048C01B821A8286E490E07C
:1012A0009D838C838EE690E09F838E8384E490E020
:1012B0009987888785E490E09B878A871D861C86AE
:1012C00087E490E09F878E87198A188A88E490E0E7
:1012D00022C08FE690E09F838E8385E890E09B8319
:1012E0008A8384E890E09D838C8380E890E09987EE
:1012F000888781E890E09B878A8789E890E09D87CE
:101300008C8788E890E09F878E878BE890E0998BA8
:10131000888B8AE890E09B8B8A8B1D8A1C8A1F8AA7
:101320001E8A82E0898323C01B821A8282EB90E0AE
:101330009D838C8380E790E09F838E8380EB90E099
:101340009987888781EB90E09B878A871D861C861A
:1013500083EB90E09F878E87198A188A84EB90E050
:101360009B8B8A8B1D8A1C8A1F8A1E8A698360E078
:10137000CE010E942209EA81FB81309709F0108298
:10138000EC81FD811082198E188E1B8E1A8E1D8E97
:101390001C8E1F8E1E8E19A218A2DF91CF91089568
:1013A00051E0411101C050E06530F0F4E62FF0E06B
:1013B000E05BFE4F408147FD17C0DC011696ED91C2
:1013C000FC911797808121E030E0042E01C0220FAC
:1013D0000A94EAF720952823852F042E01C0880F50
:1013E0000A94EAF7282B20830895623099F028F4B4
:1013F000662341F06130C9F409C0633079F064308C
:10140000A1F410C0FC01518F408F0FC0FC01538F1D
:10141000428F0BC0FC01558F448F07C0FC01578FD2
:10142000468F03C0FC0151A340A3452B11F440E0BB
:1014300003C0222319F041E00C94D0090895DC0187
:101440001896ED91FC9119973081262F23703C7FDF
:10145000232B20831A96ED91FC911B9780816C7051
:10146000660F877E682B6083089560E082EA92E0D1
:101470000E94410961E080E892E00E94410962E037
:101480008EE592E00C9441090CD0EBC0E3D040F023
:10149000DAD030F021F45F3F19F0CCC0511115C102
:1014A000CFC0F0D098F39923C9F35523B1F3951B1E
:1014B000550BBB27AA2762177307840738F09F5F75
:1014C0005F4F220F331F441FAA1FA9F333D00E2EE4
:1014D0003AF0E0E830D091505040E695001CCAF751
:1014E00029D0FE2F27D0660F771F881FBB1F261716
:1014F00037074807AB07B0E809F0BB0B802DBF01E9
:10150000FF2793585F4F2AF09E3F510568F092C025
:10151000DCC05F3FECF3983EDCF3869577956795EA
:10152000B795F7959F5FC9F7880F911D9695879599
:1015300097F90895E1E0660F771F881FBB1F6217B8
:1015400073078407BA0720F0621B730B840BBA0B76
:10155000EE1F88F7E095089504D06894B111B5C0E6
:10156000089598D088F09F5790F0B92F9927B751D8
:10157000A0F0D1F0660F771F881F991F1AF0BA9557
:10158000C9F712C0B13081F09FD0B1E008959CC07E
:10159000672F782F8827B85F39F0B93FCCF386954D
:1015A00077956795B395D9F73EF4909580957095AA
:1015B00061957F4F8F4F9F4F0895E89409C097FB27
:1015C0003EF490958095709561957F4F8F4F9F4F1A
:1015D0009923A9F0F92F96E9BB279395F69587955E
:1015E00077956795B795F111F8CFFAF4BB0F11F421
:1015F00060FF1BC06F5F7F4F8F4F9F4F16C08823C8
:1016000011F096E911C0772321F09EE8872F762FFD
:1016100005C0662371F096E8862F70E060E02AF03E
:101620009A95660F771F881FDAF7880F969587952A
:1016300097F9089597F99F6780E870E060E0089552
:101640009FEF80EC089500240A94161617061806DA
:101650000906089500240A941216130614060506B6
:101660000895092E0394000C11F4882352F0BB0F47
:1016700040F4BF2B11F460FF04C06F5F7F4F8F4FAA
:101680009F4F089557FD9058440F551F59F05F3FE5
:1016900071F04795880F97FB991F61F09F3F79F094
:1016A00087950895121613061406551FF2CF469516
:1016B000F1DF08C0161617061806991FF1CF869598
:1016C0007105610508940895E894BB27662777277C
:1016D000CB0197F90895A1E21A2EAA1BBB1BFD01AD
:1016E0000DC0AA1FBB1FEE1FFF1FA217B307E40701
:1016F000F50720F0A21BB30BE40BF50B661F771F59
:10170000881F991F1A9469F7609570958095909538
:101710009B01AC01BD01CF010895052E97FB16F486
:10172000009407D057FD0DD00E946B0B07FC09D029
:101730007EF490958095709561957F4F8F4F9F4F68
:10174000089550954095309521953F4F4F4F5F4FED
:101750000895EE0FFF1F0590F491E02D09940F936B
:101760001F93CF93DF938230910510F482E090E0D5
:10177000E091C602F091C70220E030E0C0E0D0E086
:1017800023C04081518148175907A8F048175907CD
:1017900061F482819381209719F09B838A832EC004
:1017A0009093C7028093C60229C02115310529F004
:1017B0004217530710F0A90102C0BE01DF010281E8
:1017C0001381EF019A01F8013097D9F621153105FF
:1017D00009F1281B390B2430310590F412968D91B4
:1017E0009C9113976115710521F0FB01938382830E
:1017F00004C09093C7028093C602FD01329644C094
:10180000FD01E20FF31F81939193225031092D9333
:101810003C933AC02091C4023091C502232B41F47D
:1018200020910201309103013093C5022093C4023C
:1018300020910001309101012115310541F42DB7AE
:101840003EB74091040150910501241B350BE091F6
:10185000C402F091C502E217F307A0F42E1B3F0B60
:101860002817390778F0AC014E5F5F4F2417350712
:1018700048F04E0F5F1F5093C5024093C4028193FE
:10188000919302C0E0E0F0E0CF01DF91CF911F9192
:101890000F910895EF92FF920F931F93CF93DF93D1
:1018A000009709F48FC0DC01129713961C921E92C8
:1018B0001297E090C602F090C702E114F10489F497
:1018C0002D913C911197280F391F8091C40290915E
:1018D000C5028217930789F5B093C502A093C4028D
:1018E00071C0E70120E030E001C0EA01CA17DB0760
:1018F00038F44A815B819E0141155105B1F722C040
:10190000BC0162507109FB01D383C2830081118144
:10191000AC01400F511F4C175D0761F4488159819C
:10192000400F511F4E5F5F4F518340834A815B815F
:10193000538342832115310529F4B093C702A09344
:10194000C60240C0F901B383A283E901699179918C
:10195000C60FD71FAC17BD0779F4DC015E914E911D
:10196000460F571F4E5F5F4F5183408312968D91F4
:101970009C91139793838283A0E0B0E002C0D701CB
:101980007C01F701828193810097C9F7C701029614
:1019900020813181820F931F2091C4023091C502B2
:1019A0002817390779F4109729F41092C70210927A
:1019B000C60204C013961C921E921297F092C502A2
:1019C000E092C402CDB7DEB7E6E00C94300EA0E0A2
:1019D000B0E0EDEEFCE00C940E0EEC01009729F463
:1019E000CB010E94AF0BEC01B8C0DC01A60FB71F02
:1019F000FC013297AE17BF0718F4C0E0D0E0ADC0CD
:101A00000081118106171707B0F00530110508F4A1
:101A1000A4C0C80104978617970708F49EC0025017
:101A20001109061B170B0D931D9371836083CD0164
:101A30000E944A0C92C07B01E01AF10A5C01A00EE0
:101A4000B11EE091C602F091C702812C912C80E07A
:101A500090E04CC0EA15FB05F1F5408151816A0127
:101A600022E0C20ED11CCE14DF04A8F19A012E1977
:101A70003F097901690132E0C30ED11C2EEFA22E7D
:101A8000BB24BA94AC0EBD1E25E0C216D10478F07A
:101A90004281538113965C934E9312971196FC9258
:101AA000EE92F501718360833A2F2B2F09C00E5FF0
:101AB0001F4F040F151FD5010D931C9332812381F5
:101AC000009721F0FC013283238347C03093C60284
:101AD0002093C70242C0808191818816990608F43C
:101AE0004C0152814381CF01E52FF42F309709F04B
:101AF000B1CF8091C4029091C5028A159B05F1F483
:101B000086169706D8F48091000190910101009704
:101B100041F48DB79EB72091040130910501821BDD
:101B2000930BA817B90708F068CFB093C502A0932C
:101B3000C402FE013297718360830FC0CB010E9403
:101B4000AF0B7C01009709F458CFA801BE010E9499
:101B5000B30DCE010E944A0CE701CE01CDB7DEB72E
:101B6000ECE00C942A0EFB01DC0102C001900D9206
:101B700041505040D8F70895FB01DC0101900D92CF
:101B80000020E1F70895FB019F01E8944230C4F082
:101B90004532B4F44A3029F497FB1EF490958195B0
:101BA0009F4F642F77270E94F40D805D8A330CF0DD
:101BB000895D8193CB010097A1F716F45DE2519303
:101BC0001082C9010C94E40DDC01FC01672F7191B6
:101BD0007723E1F7329704C07C916D937083629113
:101BE000AE17BF07C8F30895AA1BBB1B51E107C07E
:101BF000AA1FBB1FA617B70710F0A61BB70B881F9D
:101C0000991F5A95A9F780959095BC01CD0108952B
:101C10002F923F924F925F926F927F928F929F92FC
:101C2000AF92BF92CF92DF92EF92FF920F931F93EA
:101C3000CF93DF93CDB7DEB7CA1BDB0B0FB6F8949B
:101C4000DEBF0FBECDBF09942A88398848885F84DB
:101C50006E847D848C849B84AA84B984C884DF804C
:101C6000EE80FD800C811B81AA81B981CE0FD11D30
:101C70000FB6F894DEBF0FBECDBFED01089510E0A2
:101C8000C2E8D0E004C0FE010E94AB0B2296C4382B
:081C9000D107C9F7F894FFCF5A
:101C98000000C802200017000F001B000101090006
:101CA80062706D006D6D006D6D486700000000008A
:101CB8000F03F505C102C602EC02DA0200000000BB
:101CC800E70267036D0300000000E2025B036103A3
:101CD80001020304050607010200030004050607C4
:061CE800000102030500EB
:00000001FF
